{
  "_format": "hh-sol-artifact-1",
  "contractName": "Mottoverse",
  "sourceName": "contracts/Mottoverse.sol",
  "abi": [
    {
      "inputs": [],
      "stateMutability": "nonpayable",
      "type": "constructor"
    },
    {
      "anonymous": false,
      "inputs": [
        {
          "indexed": true,
          "internalType": "address",
          "name": "account",
          "type": "address"
        },
        {
          "indexed": true,
          "internalType": "address",
          "name": "operator",
          "type": "address"
        },
        {
          "indexed": false,
          "internalType": "bool",
          "name": "approved",
          "type": "bool"
        }
      ],
      "name": "ApprovalForAll",
      "type": "event"
    },
    {
      "anonymous": false,
      "inputs": [
        {
          "indexed": true,
          "internalType": "address",
          "name": "creator",
          "type": "address"
        },
        {
          "indexed": false,
          "internalType": "uint256",
          "name": "tokenId",
          "type": "uint256"
        },
        {
          "indexed": false,
          "internalType": "uint256[]",
          "name": "motto",
          "type": "uint256[]"
        }
      ],
      "name": "MottoCreated",
      "type": "event"
    },
    {
      "anonymous": false,
      "inputs": [
        {
          "indexed": true,
          "internalType": "address",
          "name": "creator",
          "type": "address"
        },
        {
          "indexed": false,
          "internalType": "uint256",
          "name": "tokenId",
          "type": "uint256"
        },
        {
          "components": [
            {
              "internalType": "bytes32",
              "name": "lat",
              "type": "bytes32"
            },
            {
              "internalType": "bytes32",
              "name": "lng",
              "type": "bytes32"
            }
          ],
          "indexed": false,
          "internalType": "struct Mottoverse.Locale",
          "name": "locale",
          "type": "tuple"
        }
      ],
      "name": "MottoPlaced",
      "type": "event"
    },
    {
      "anonymous": false,
      "inputs": [
        {
          "indexed": true,
          "internalType": "address",
          "name": "creator",
          "type": "address"
        },
        {
          "indexed": false,
          "internalType": "uint256",
          "name": "tokenId",
          "type": "uint256"
        }
      ],
      "name": "MottoReleased",
      "type": "event"
    },
    {
      "anonymous": false,
      "inputs": [
        {
          "indexed": true,
          "internalType": "address",
          "name": "operator",
          "type": "address"
        },
        {
          "indexed": true,
          "internalType": "address",
          "name": "from",
          "type": "address"
        },
        {
          "indexed": true,
          "internalType": "address",
          "name": "to",
          "type": "address"
        },
        {
          "indexed": false,
          "internalType": "uint256[]",
          "name": "ids",
          "type": "uint256[]"
        },
        {
          "indexed": false,
          "internalType": "uint256[]",
          "name": "values",
          "type": "uint256[]"
        }
      ],
      "name": "TransferBatch",
      "type": "event"
    },
    {
      "anonymous": false,
      "inputs": [
        {
          "indexed": true,
          "internalType": "address",
          "name": "operator",
          "type": "address"
        },
        {
          "indexed": true,
          "internalType": "address",
          "name": "from",
          "type": "address"
        },
        {
          "indexed": true,
          "internalType": "address",
          "name": "to",
          "type": "address"
        },
        {
          "indexed": false,
          "internalType": "uint256",
          "name": "id",
          "type": "uint256"
        },
        {
          "indexed": false,
          "internalType": "uint256",
          "name": "value",
          "type": "uint256"
        }
      ],
      "name": "TransferSingle",
      "type": "event"
    },
    {
      "anonymous": false,
      "inputs": [
        {
          "indexed": false,
          "internalType": "string",
          "name": "value",
          "type": "string"
        },
        {
          "indexed": true,
          "internalType": "uint256",
          "name": "id",
          "type": "uint256"
        }
      ],
      "name": "URI",
      "type": "event"
    },
    {
      "anonymous": false,
      "inputs": [
        {
          "indexed": true,
          "internalType": "address",
          "name": "creator",
          "type": "address"
        },
        {
          "indexed": false,
          "internalType": "uint256",
          "name": "tokenId",
          "type": "uint256"
        },
        {
          "indexed": false,
          "internalType": "uint8[]",
          "name": "word",
          "type": "uint8[]"
        }
      ],
      "name": "WordCreated",
      "type": "event"
    },
    {
      "inputs": [],
      "name": "A",
      "outputs": [
        {
          "internalType": "uint256",
          "name": "",
          "type": "uint256"
        }
      ],
      "stateMutability": "view",
      "type": "function"
    },
    {
      "inputs": [],
      "name": "B",
      "outputs": [
        {
          "internalType": "uint256",
          "name": "",
          "type": "uint256"
        }
      ],
      "stateMutability": "view",
      "type": "function"
    },
    {
      "inputs": [],
      "name": "C",
      "outputs": [
        {
          "internalType": "uint256",
          "name": "",
          "type": "uint256"
        }
      ],
      "stateMutability": "view",
      "type": "function"
    },
    {
      "inputs": [],
      "name": "D",
      "outputs": [
        {
          "internalType": "uint256",
          "name": "",
          "type": "uint256"
        }
      ],
      "stateMutability": "view",
      "type": "function"
    },
    {
      "inputs": [],
      "name": "E",
      "outputs": [
        {
          "internalType": "uint256",
          "name": "",
          "type": "uint256"
        }
      ],
      "stateMutability": "view",
      "type": "function"
    },
    {
      "inputs": [],
      "name": "F",
      "outputs": [
        {
          "internalType": "uint256",
          "name": "",
          "type": "uint256"
        }
      ],
      "stateMutability": "view",
      "type": "function"
    },
    {
      "inputs": [],
      "name": "G",
      "outputs": [
        {
          "internalType": "uint256",
          "name": "",
          "type": "uint256"
        }
      ],
      "stateMutability": "view",
      "type": "function"
    },
    {
      "inputs": [],
      "name": "GOLD",
      "outputs": [
        {
          "internalType": "uint256",
          "name": "",
          "type": "uint256"
        }
      ],
      "stateMutability": "view",
      "type": "function"
    },
    {
      "inputs": [],
      "name": "H",
      "outputs": [
        {
          "internalType": "uint256",
          "name": "",
          "type": "uint256"
        }
      ],
      "stateMutability": "view",
      "type": "function"
    },
    {
      "inputs": [],
      "name": "I",
      "outputs": [
        {
          "internalType": "uint256",
          "name": "",
          "type": "uint256"
        }
      ],
      "stateMutability": "view",
      "type": "function"
    },
    {
      "inputs": [],
      "name": "J",
      "outputs": [
        {
          "internalType": "uint256",
          "name": "",
          "type": "uint256"
        }
      ],
      "stateMutability": "view",
      "type": "function"
    },
    {
      "inputs": [],
      "name": "K",
      "outputs": [
        {
          "internalType": "uint256",
          "name": "",
          "type": "uint256"
        }
      ],
      "stateMutability": "view",
      "type": "function"
    },
    {
      "inputs": [],
      "name": "L",
      "outputs": [
        {
          "internalType": "uint256",
          "name": "",
          "type": "uint256"
        }
      ],
      "stateMutability": "view",
      "type": "function"
    },
    {
      "inputs": [
        {
          "internalType": "uint256",
          "name": "",
          "type": "uint256"
        }
      ],
      "name": "Locales",
      "outputs": [
        {
          "internalType": "bytes32",
          "name": "lat",
          "type": "bytes32"
        },
        {
          "internalType": "bytes32",
          "name": "lng",
          "type": "bytes32"
        }
      ],
      "stateMutability": "view",
      "type": "function"
    },
    {
      "inputs": [],
      "name": "M",
      "outputs": [
        {
          "internalType": "uint256",
          "name": "",
          "type": "uint256"
        }
      ],
      "stateMutability": "view",
      "type": "function"
    },
    {
      "inputs": [],
      "name": "N",
      "outputs": [
        {
          "internalType": "uint256",
          "name": "",
          "type": "uint256"
        }
      ],
      "stateMutability": "view",
      "type": "function"
    },
    {
      "inputs": [],
      "name": "NFT_START",
      "outputs": [
        {
          "internalType": "uint256",
          "name": "",
          "type": "uint256"
        }
      ],
      "stateMutability": "view",
      "type": "function"
    },
    {
      "inputs": [],
      "name": "O",
      "outputs": [
        {
          "internalType": "uint256",
          "name": "",
          "type": "uint256"
        }
      ],
      "stateMutability": "view",
      "type": "function"
    },
    {
      "inputs": [],
      "name": "P",
      "outputs": [
        {
          "internalType": "uint256",
          "name": "",
          "type": "uint256"
        }
      ],
      "stateMutability": "view",
      "type": "function"
    },
    {
      "inputs": [],
      "name": "Q",
      "outputs": [
        {
          "internalType": "uint256",
          "name": "",
          "type": "uint256"
        }
      ],
      "stateMutability": "view",
      "type": "function"
    },
    {
      "inputs": [],
      "name": "R",
      "outputs": [
        {
          "internalType": "uint256",
          "name": "",
          "type": "uint256"
        }
      ],
      "stateMutability": "view",
      "type": "function"
    },
    {
      "inputs": [],
      "name": "S",
      "outputs": [
        {
          "internalType": "uint256",
          "name": "",
          "type": "uint256"
        }
      ],
      "stateMutability": "view",
      "type": "function"
    },
    {
      "inputs": [],
      "name": "T",
      "outputs": [
        {
          "internalType": "uint256",
          "name": "",
          "type": "uint256"
        }
      ],
      "stateMutability": "view",
      "type": "function"
    },
    {
      "inputs": [],
      "name": "U",
      "outputs": [
        {
          "internalType": "uint256",
          "name": "",
          "type": "uint256"
        }
      ],
      "stateMutability": "view",
      "type": "function"
    },
    {
      "inputs": [],
      "name": "V",
      "outputs": [
        {
          "internalType": "uint256",
          "name": "",
          "type": "uint256"
        }
      ],
      "stateMutability": "view",
      "type": "function"
    },
    {
      "inputs": [],
      "name": "W",
      "outputs": [
        {
          "internalType": "uint256",
          "name": "",
          "type": "uint256"
        }
      ],
      "stateMutability": "view",
      "type": "function"
    },
    {
      "inputs": [],
      "name": "X",
      "outputs": [
        {
          "internalType": "uint256",
          "name": "",
          "type": "uint256"
        }
      ],
      "stateMutability": "view",
      "type": "function"
    },
    {
      "inputs": [],
      "name": "Y",
      "outputs": [
        {
          "internalType": "uint256",
          "name": "",
          "type": "uint256"
        }
      ],
      "stateMutability": "view",
      "type": "function"
    },
    {
      "inputs": [],
      "name": "Z",
      "outputs": [
        {
          "internalType": "uint256",
          "name": "",
          "type": "uint256"
        }
      ],
      "stateMutability": "view",
      "type": "function"
    },
    {
      "inputs": [
        {
          "internalType": "address",
          "name": "account",
          "type": "address"
        },
        {
          "internalType": "uint256",
          "name": "id",
          "type": "uint256"
        }
      ],
      "name": "balanceOf",
      "outputs": [
        {
          "internalType": "uint256",
          "name": "",
          "type": "uint256"
        }
      ],
      "stateMutability": "view",
      "type": "function"
    },
    {
      "inputs": [
        {
          "internalType": "address[]",
          "name": "accounts",
          "type": "address[]"
        },
        {
          "internalType": "uint256[]",
          "name": "ids",
          "type": "uint256[]"
        }
      ],
      "name": "balanceOfBatch",
      "outputs": [
        {
          "internalType": "uint256[]",
          "name": "",
          "type": "uint256[]"
        }
      ],
      "stateMutability": "view",
      "type": "function"
    },
    {
      "inputs": [],
      "name": "buyGold",
      "outputs": [],
      "stateMutability": "payable",
      "type": "function"
    },
    {
      "inputs": [
        {
          "internalType": "uint256[]",
          "name": "_motto",
          "type": "uint256[]"
        }
      ],
      "name": "createMotto",
      "outputs": [],
      "stateMutability": "nonpayable",
      "type": "function"
    },
    {
      "inputs": [
        {
          "internalType": "uint256[]",
          "name": "_letters",
          "type": "uint256[]"
        },
        {
          "internalType": "uint256[]",
          "name": "_amounts",
          "type": "uint256[]"
        },
        {
          "internalType": "uint8[]",
          "name": "_word",
          "type": "uint8[]"
        }
      ],
      "name": "createWord",
      "outputs": [],
      "stateMutability": "nonpayable",
      "type": "function"
    },
    {
      "inputs": [],
      "name": "getLetterBalances",
      "outputs": [
        {
          "internalType": "uint256[26]",
          "name": "",
          "type": "uint256[26]"
        }
      ],
      "stateMutability": "view",
      "type": "function"
    },
    {
      "inputs": [
        {
          "components": [
            {
              "internalType": "uint256[]",
              "name": "letters",
              "type": "uint256[]"
            },
            {
              "internalType": "uint256[]",
              "name": "amounts",
              "type": "uint256[]"
            }
          ],
          "internalType": "struct Mottoverse.SignedLetterData",
          "name": "letterData",
          "type": "tuple"
        },
        {
          "internalType": "bytes",
          "name": "signature",
          "type": "bytes"
        }
      ],
      "name": "getLetterBatch",
      "outputs": [],
      "stateMutability": "nonpayable",
      "type": "function"
    },
    {
      "inputs": [],
      "name": "getPlacedMottos",
      "outputs": [
        {
          "internalType": "uint256[]",
          "name": "",
          "type": "uint256[]"
        }
      ],
      "stateMutability": "view",
      "type": "function"
    },
    {
      "inputs": [
        {
          "internalType": "address",
          "name": "account",
          "type": "address"
        },
        {
          "internalType": "address",
          "name": "operator",
          "type": "address"
        }
      ],
      "name": "isApprovedForAll",
      "outputs": [
        {
          "internalType": "bool",
          "name": "",
          "type": "bool"
        }
      ],
      "stateMutability": "view",
      "type": "function"
    },
    {
      "inputs": [],
      "name": "mottoIds",
      "outputs": [
        {
          "internalType": "uint256",
          "name": "",
          "type": "uint256"
        }
      ],
      "stateMutability": "view",
      "type": "function"
    },
    {
      "inputs": [
        {
          "internalType": "bytes32",
          "name": "",
          "type": "bytes32"
        }
      ],
      "name": "mottoToTokenId",
      "outputs": [
        {
          "internalType": "uint256",
          "name": "",
          "type": "uint256"
        }
      ],
      "stateMutability": "view",
      "type": "function"
    },
    {
      "inputs": [
        {
          "internalType": "uint256",
          "name": "",
          "type": "uint256"
        }
      ],
      "name": "mottos",
      "outputs": [
        {
          "internalType": "uint256",
          "name": "",
          "type": "uint256"
        }
      ],
      "stateMutability": "view",
      "type": "function"
    },
    {
      "inputs": [
        {
          "internalType": "address",
          "name": "_a",
          "type": "address"
        },
        {
          "internalType": "address",
          "name": "_b",
          "type": "address"
        },
        {
          "internalType": "uint256[]",
          "name": "",
          "type": "uint256[]"
        },
        {
          "internalType": "uint256[]",
          "name": "",
          "type": "uint256[]"
        },
        {
          "internalType": "bytes",
          "name": "",
          "type": "bytes"
        }
      ],
      "name": "onERC1155BatchReceived",
      "outputs": [
        {
          "internalType": "bytes4",
          "name": "",
          "type": "bytes4"
        }
      ],
      "stateMutability": "nonpayable",
      "type": "function"
    },
    {
      "inputs": [
        {
          "internalType": "address",
          "name": "_a",
          "type": "address"
        },
        {
          "internalType": "address",
          "name": "_b",
          "type": "address"
        },
        {
          "internalType": "uint256",
          "name": "_tokenId",
          "type": "uint256"
        },
        {
          "internalType": "uint256",
          "name": "",
          "type": "uint256"
        },
        {
          "internalType": "bytes",
          "name": "",
          "type": "bytes"
        }
      ],
      "name": "onERC1155Received",
      "outputs": [
        {
          "internalType": "bytes4",
          "name": "",
          "type": "bytes4"
        }
      ],
      "stateMutability": "nonpayable",
      "type": "function"
    },
    {
      "inputs": [],
      "name": "owner",
      "outputs": [
        {
          "internalType": "address",
          "name": "",
          "type": "address"
        }
      ],
      "stateMutability": "view",
      "type": "function"
    },
    {
      "inputs": [
        {
          "internalType": "uint256",
          "name": "_tokenId",
          "type": "uint256"
        }
      ],
      "name": "ownerOf",
      "outputs": [
        {
          "internalType": "address",
          "name": "",
          "type": "address"
        }
      ],
      "stateMutability": "view",
      "type": "function"
    },
    {
      "inputs": [
        {
          "internalType": "uint256",
          "name": "_tokenId",
          "type": "uint256"
        },
        {
          "internalType": "bytes32",
          "name": "_lat",
          "type": "bytes32"
        },
        {
          "internalType": "bytes32",
          "name": "_lng",
          "type": "bytes32"
        }
      ],
      "name": "placeMotto",
      "outputs": [],
      "stateMutability": "nonpayable",
      "type": "function"
    },
    {
      "inputs": [
        {
          "internalType": "uint256",
          "name": "",
          "type": "uint256"
        }
      ],
      "name": "placedMottos",
      "outputs": [
        {
          "internalType": "uint256",
          "name": "",
          "type": "uint256"
        }
      ],
      "stateMutability": "view",
      "type": "function"
    },
    {
      "inputs": [
        {
          "internalType": "uint256",
          "name": "_tokenId",
          "type": "uint256"
        }
      ],
      "name": "releaseMotto",
      "outputs": [],
      "stateMutability": "nonpayable",
      "type": "function"
    },
    {
      "inputs": [
        {
          "internalType": "address",
          "name": "from",
          "type": "address"
        },
        {
          "internalType": "address",
          "name": "to",
          "type": "address"
        },
        {
          "internalType": "uint256[]",
          "name": "ids",
          "type": "uint256[]"
        },
        {
          "internalType": "uint256[]",
          "name": "amounts",
          "type": "uint256[]"
        },
        {
          "internalType": "bytes",
          "name": "data",
          "type": "bytes"
        }
      ],
      "name": "safeBatchTransferFrom",
      "outputs": [],
      "stateMutability": "nonpayable",
      "type": "function"
    },
    {
      "inputs": [
        {
          "internalType": "address",
          "name": "from",
          "type": "address"
        },
        {
          "internalType": "address",
          "name": "to",
          "type": "address"
        },
        {
          "internalType": "uint256",
          "name": "id",
          "type": "uint256"
        },
        {
          "internalType": "uint256",
          "name": "amount",
          "type": "uint256"
        },
        {
          "internalType": "bytes",
          "name": "data",
          "type": "bytes"
        }
      ],
      "name": "safeTransferFrom",
      "outputs": [],
      "stateMutability": "nonpayable",
      "type": "function"
    },
    {
      "inputs": [
        {
          "internalType": "address",
          "name": "operator",
          "type": "address"
        },
        {
          "internalType": "bool",
          "name": "approved",
          "type": "bool"
        }
      ],
      "name": "setApprovalForAll",
      "outputs": [],
      "stateMutability": "nonpayable",
      "type": "function"
    },
    {
      "inputs": [
        {
          "internalType": "bytes4",
          "name": "interfaceId",
          "type": "bytes4"
        }
      ],
      "name": "supportsInterface",
      "outputs": [
        {
          "internalType": "bool",
          "name": "",
          "type": "bool"
        }
      ],
      "stateMutability": "view",
      "type": "function"
    },
    {
      "inputs": [
        {
          "internalType": "uint256",
          "name": "",
          "type": "uint256"
        }
      ],
      "name": "tokenIdToMottoHash",
      "outputs": [
        {
          "internalType": "bytes32",
          "name": "",
          "type": "bytes32"
        }
      ],
      "stateMutability": "view",
      "type": "function"
    },
    {
      "inputs": [
        {
          "internalType": "uint256",
          "name": "",
          "type": "uint256"
        }
      ],
      "name": "tokenIdToOwner",
      "outputs": [
        {
          "internalType": "address",
          "name": "",
          "type": "address"
        }
      ],
      "stateMutability": "view",
      "type": "function"
    },
    {
      "inputs": [
        {
          "internalType": "uint256",
          "name": "",
          "type": "uint256"
        }
      ],
      "name": "tokenIdToWordHash",
      "outputs": [
        {
          "internalType": "bytes32",
          "name": "",
          "type": "bytes32"
        }
      ],
      "stateMutability": "view",
      "type": "function"
    },
    {
      "inputs": [
        {
          "internalType": "uint256",
          "name": "",
          "type": "uint256"
        }
      ],
      "name": "uri",
      "outputs": [
        {
          "internalType": "string",
          "name": "",
          "type": "string"
        }
      ],
      "stateMutability": "view",
      "type": "function"
    },
    {
      "inputs": [],
      "name": "wordIds",
      "outputs": [
        {
          "internalType": "uint256",
          "name": "",
          "type": "uint256"
        }
      ],
      "stateMutability": "view",
      "type": "function"
    },
    {
      "inputs": [
        {
          "internalType": "bytes32",
          "name": "",
          "type": "bytes32"
        }
      ],
      "name": "wordToTokenId",
      "outputs": [
        {
          "internalType": "uint256",
          "name": "",
          "type": "uint256"
        }
      ],
      "stateMutability": "view",
      "type": "function"
    },
    {
      "inputs": [
        {
          "internalType": "uint256",
          "name": "",
          "type": "uint256"
        }
      ],
      "name": "words",
      "outputs": [
        {
          "internalType": "uint256",
          "name": "",
          "type": "uint256"
        }
      ],
      "stateMutability": "view",
      "type": "function"
    }
  ],
  "bytecode": "0x61014060405260405180604001604052806000801b81526020016000801b815250600360008201518160000155602082015181600101555050601b600555601b6006556001601b62000052919062000fb1565b6007553480156200006257600080fd5b506040518060400160405280600781526020017f66726f67617373000000000000000000000000000000000000000000000000008152506040518060400160405280600381526020017f312e300000000000000000000000000000000000000000000000000000000000815250604051806060016040528060298152602001620072ea60299139620000fa81620006c760201b60201c565b5060008280519060200120905060008280519060200120905060007f8b73c3c69bb8fe3d512ecc4cf759cc79239f7b179b0ffacaa9a75d522b39400f90508260e081815250508161010081815250504660a0818152505062000164818484620006e360201b60201c565b608081815250503073ffffffffffffffffffffffffffffffffffffffff1660c08173ffffffffffffffffffffffffffffffffffffffff1660601b81525050806101208181525050505050505033601160006101000a81548173ffffffffffffffffffffffffffffffffffffffff021916908373ffffffffffffffffffffffffffffffffffffffff1602179055506200021d336000670de0b6b3a7640000604051806020016040528060008152506200071f60201b60201c565b62000249306000670de0b6b3a7640000604051806020016040528060008152506200071f60201b60201c565b62000275306001670de0b6b3a7640000604051806020016040528060008152506200071f60201b60201c565b620002a1306002670de0b6b3a7640000604051806020016040528060008152506200071f60201b60201c565b620002cd306003670de0b6b3a7640000604051806020016040528060008152506200071f60201b60201c565b620002f9306004670de0b6b3a7640000604051806020016040528060008152506200071f60201b60201c565b62000325306005670de0b6b3a7640000604051806020016040528060008152506200071f60201b60201c565b62000351306006670de0b6b3a7640000604051806020016040528060008152506200071f60201b60201c565b6200037d306007670de0b6b3a7640000604051806020016040528060008152506200071f60201b60201c565b620003a9306008670de0b6b3a7640000604051806020016040528060008152506200071f60201b60201c565b620003d5306009670de0b6b3a7640000604051806020016040528060008152506200071f60201b60201c565b6200040130600a670de0b6b3a7640000604051806020016040528060008152506200071f60201b60201c565b6200042d30600b670de0b6b3a7640000604051806020016040528060008152506200071f60201b60201c565b6200045930600c670de0b6b3a7640000604051806020016040528060008152506200071f60201b60201c565b6200048530600d670de0b6b3a7640000604051806020016040528060008152506200071f60201b60201c565b620004b130600e670de0b6b3a7640000604051806020016040528060008152506200071f60201b60201c565b620004dd30600f670de0b6b3a7640000604051806020016040528060008152506200071f60201b60201c565b62000509306010670de0b6b3a7640000604051806020016040528060008152506200071f60201b60201c565b62000535306011670de0b6b3a7640000604051806020016040528060008152506200071f60201b60201c565b62000561306012670de0b6b3a7640000604051806020016040528060008152506200071f60201b60201c565b6200058d306013670de0b6b3a7640000604051806020016040528060008152506200071f60201b60201c565b620005b9306014670de0b6b3a7640000604051806020016040528060008152506200071f60201b60201c565b620005e5306015670de0b6b3a7640000604051806020016040528060008152506200071f60201b60201c565b62000611306016670de0b6b3a7640000604051806020016040528060008152506200071f60201b60201c565b6200063d306017670de0b6b3a7640000604051806020016040528060008152506200071f60201b60201c565b62000669306018670de0b6b3a7640000604051806020016040528060008152506200071f60201b60201c565b62000695306019670de0b6b3a7640000604051806020016040528060008152506200071f60201b60201c565b620006c130601a670de0b6b3a7640000604051806020016040528060008152506200071f60201b60201c565b6200139d565b8060029080519060200190620006df92919062000bda565b5050565b600083838346306040516020016200070095949392919062000e5b565b6040516020818303038152906040528051906020012090509392505050565b600073ffffffffffffffffffffffffffffffffffffffff168473ffffffffffffffffffffffffffffffffffffffff16141562000792576040517f08c379a0000000000000000000000000000000000000000000000000000000008152600401620007899062000f20565b60405180910390fd5b6000620007a4620008e460201b60201c565b9050620007dd81600087620007bf88620008ec60201b60201c565b620007d088620008ec60201b60201c565b87620009b560201b60201c565b8260008086815260200190815260200160002060008773ffffffffffffffffffffffffffffffffffffffff1673ffffffffffffffffffffffffffffffffffffffff16815260200190815260200160002060008282546200083e919062000fb1565b925050819055508473ffffffffffffffffffffffffffffffffffffffff16600073ffffffffffffffffffffffffffffffffffffffff168273ffffffffffffffffffffffffffffffffffffffff167fc3d58168c5ae7397731d063d5bbf3d657854427343f4c083240f7aacaa2d0f628787604051620008be92919062000f42565b60405180910390a4620008dd81600087878787620009bd60201b60201c565b5050505050565b600033905090565b60606000600167ffffffffffffffff81111562000932577f4e487b7100000000000000000000000000000000000000000000000000000000600052604160045260246000fd5b604051908082528060200260200182016040528015620009615781602001602082028036833780820191505090505b5090508281600081518110620009a0577f4e487b7100000000000000000000000000000000000000000000000000000000600052603260045260246000fd5b60200260200101818152505080915050919050565b505050505050565b620009e98473ffffffffffffffffffffffffffffffffffffffff1662000bc760201b620024b11760201c565b1562000bbf578373ffffffffffffffffffffffffffffffffffffffff1663f23a6e6187878686866040518663ffffffff1660e01b815260040162000a3295949392919062000df7565b602060405180830381600087803b15801562000a4d57600080fd5b505af192505050801562000a8157506040513d601f19601f8201168201806040525081019062000a7e919062000ca1565b60015b62000b335762000a90620011b1565b806308c379a0141562000af4575062000aa8620012e1565b8062000ab5575062000af6565b806040517f08c379a000000000000000000000000000000000000000000000000000000000815260040162000aeb919062000eb8565b60405180910390fd5b505b6040517f08c379a000000000000000000000000000000000000000000000000000000000815260040162000b2a9062000edc565b60405180910390fd5b63f23a6e6160e01b7bffffffffffffffffffffffffffffffffffffffffffffffffffffffff1916817bffffffffffffffffffffffffffffffffffffffffffffffffffffffff19161462000bbd576040517f08c379a000000000000000000000000000000000000000000000000000000000815260040162000bb49062000efe565b60405180910390fd5b505b505050505050565b600080823b905060008111915050919050565b82805462000be890620010b8565b90600052602060002090601f01602090048101928262000c0c576000855562000c58565b82601f1062000c2757805160ff191683800117855562000c58565b8280016001018555821562000c58579182015b8281111562000c5757825182559160200191906001019062000c3a565b5b50905062000c67919062000c6b565b5090565b5b8082111562000c8657600081600090555060010162000c6c565b5090565b60008151905062000c9b8162001383565b92915050565b60006020828403121562000cb457600080fd5b600062000cc48482850162000c8a565b91505092915050565b62000cd8816200100e565b82525050565b62000ce98162001022565b82525050565b600062000cfc8262000f79565b62000d08818562000f8f565b935062000d1a81856020860162001082565b62000d2581620011d6565b840191505092915050565b600062000d3d8262000f84565b62000d49818562000fa0565b935062000d5b81856020860162001082565b62000d6681620011d6565b840191505092915050565b600062000d8060348362000fa0565b915062000d8d82620011f4565b604082019050919050565b600062000da760288362000fa0565b915062000db48262001243565b604082019050919050565b600062000dce60218362000fa0565b915062000ddb8262001292565b604082019050919050565b62000df18162001078565b82525050565b600060a08201905062000e0e600083018862000ccd565b62000e1d602083018762000ccd565b62000e2c604083018662000de6565b62000e3b606083018562000de6565b818103608083015262000e4f818462000cef565b90509695505050505050565b600060a08201905062000e72600083018862000cde565b62000e81602083018762000cde565b62000e90604083018662000cde565b62000e9f606083018562000de6565b62000eae608083018462000ccd565b9695505050505050565b6000602082019050818103600083015262000ed4818462000d30565b905092915050565b6000602082019050818103600083015262000ef78162000d71565b9050919050565b6000602082019050818103600083015262000f198162000d98565b9050919050565b6000602082019050818103600083015262000f3b8162000dbf565b9050919050565b600060408201905062000f59600083018562000de6565b62000f68602083018462000de6565b9392505050565b6000604051905090565b600081519050919050565b600081519050919050565b600082825260208201905092915050565b600082825260208201905092915050565b600062000fbe8262001078565b915062000fcb8362001078565b9250827fffffffffffffffffffffffffffffffffffffffffffffffffffffffffffffffff0382111562001003576200100262001124565b5b828201905092915050565b60006200101b8262001058565b9050919050565b6000819050919050565b60007fffffffff0000000000000000000000000000000000000000000000000000000082169050919050565b600073ffffffffffffffffffffffffffffffffffffffff82169050919050565b6000819050919050565b60005b83811015620010a257808201518184015260208101905062001085565b83811115620010b2576000848401525b50505050565b60006002820490506001821680620010d157607f821691505b60208210811415620010e857620010e762001153565b5b50919050565b620010f982620011d6565b810181811067ffffffffffffffff821117156200111b576200111a62001182565b5b80604052505050565b7f4e487b7100000000000000000000000000000000000000000000000000000000600052601160045260246000fd5b7f4e487b7100000000000000000000000000000000000000000000000000000000600052602260045260246000fd5b7f4e487b7100000000000000000000000000000000000000000000000000000000600052604160045260246000fd5b600060033d1115620011d35760046000803e620011d0600051620011e7565b90505b90565b6000601f19601f8301169050919050565b60008160e01c9050919050565b7f455243313135353a207472616e7366657220746f206e6f6e204552433131353560008201527f526563656976657220696d706c656d656e746572000000000000000000000000602082015250565b7f455243313135353a204552433131353552656365697665722072656a6563746560008201527f6420746f6b656e73000000000000000000000000000000000000000000000000602082015250565b7f455243313135353a206d696e7420746f20746865207a65726f2061646472657360008201527f7300000000000000000000000000000000000000000000000000000000000000602082015250565b600060443d1015620012f35762001380565b620012fd62000f6f565b60043d036004823e80513d602482011167ffffffffffffffff821117156200132757505062001380565b808201805167ffffffffffffffff81111562001347575050505062001380565b80602083010160043d0385018111156200136657505050505062001380565b6200137782602001850186620010ee565b82955050505050505b90565b6200138e816200102c565b81146200139a57600080fd5b50565b60805160a05160c05160601c60e0516101005161012051615efa620013f060003960006134dc0152600061351e015260006134fd0152600061343201526000613488015260006134b10152615efa6000f3fe60806040526004361061038b5760003560e01c806370a5d861116101dc578063a932492f11610102578063d12376e7116100a0578063e985e9c51161006f578063e985e9c514610dad578063f23a6e6114610dea578063f242432a14610e27578063f446c1d014610e505761038b565b8063d12376e714610d01578063d726000614610d2c578063db62488714610d57578063e493ef8c14610d825761038b565b8063c1599bd9116100dc578063c1599bd914610c43578063c9e525df14610c6e578063ccec3ef214610c99578063d053c8a814610cd65761038b565b8063a932492f14610bb2578063bc197c8114610bdd578063be6a3aa514610c1a5761038b565b80639f0ec2a11161017a578063a1e2082811610149578063a1e2082814610ae4578063a22cb46514610b21578063a40961b914610b4a578063a5127de614610b755761038b565b80639f0ec2a114610a3a5780639f13f76d14610a63578063a05fe83e14610a8e578063a0ea32de14610ab95761038b565b80638b8fbd92116101b65780638b8fbd921461097c5780638da5cb5b146109a757806392bbf6e8146109d25780639cba9afb146109fd5761038b565b806370a5d861146108e957806383dfe5fd14610914578063884fc8381461093f5761038b565b80633edd9b3e116102c157806353f7c0531161025f57806366b6d4a61161022e57806366b6d4a614610819578063693f917e146108565780636e9e48ef146108815780636fecb623146108be5761038b565b806353f7c0531461074b578063583ec7411461077457806360b38eb9146107b15780636352211e146107dc5761038b565b80634736207c1161029b5780634736207c1461068f5780634980e1be146106b85780634be1c796146106e35780634e1273f41461070e5761038b565b80633edd9b3e146105fd57806341419c561461063b57806345b3fe42146106645761038b565b806328811f591161032e5780632f7b8af4116103085780632f7b8af41461057257806332e7c5bf1461057c578063390858c1146105a75780633e4bee38146105d25761038b565b806328811f59146104f35780632bc80f3a1461051e5780632eb2c2d6146105495761038b565b80630f529ba21161036a5780630f529ba2146104475780631c10873214610472578063205db2c11461049d5780632688454a146104c85761038b565b8062fdd58e1461039057806301ffc9a7146103cd5780630e89341c1461040a575b600080fd5b34801561039c57600080fd5b506103b760048036038101906103b29190613fef565b610e7b565b6040516103c491906150e2565b60405180910390f35b3480156103d957600080fd5b506103f460048036038101906103ef9190614198565b610f44565b6040516104019190614c37565b60405180910390f35b34801561041657600080fd5b50610431600480360381019061042c919061425a565b611026565b60405161043e9190614d80565b60405180910390f35b34801561045357600080fd5b5061045c6110ba565b60405161046991906150e2565b60405180910390f35b34801561047e57600080fd5b506104876110bf565b60405161049491906150e2565b60405180910390f35b3480156104a957600080fd5b506104b26110c5565b6040516104bf91906150e2565b60405180910390f35b3480156104d457600080fd5b506104dd6110ca565b6040516104ea91906150e2565b60405180910390f35b3480156104ff57600080fd5b506105086110cf565b60405161051591906150e2565b60405180910390f35b34801561052a57600080fd5b506105336110d4565b60405161054091906150e2565b60405180910390f35b34801561055557600080fd5b50610570600480360381019061056b9190613e65565b6110d9565b005b61057a61117a565b005b34801561058857600080fd5b506105916111e4565b60405161059e91906150e2565b60405180910390f35b3480156105b357600080fd5b506105bc6111e9565b6040516105c991906150e2565b60405180910390f35b3480156105de57600080fd5b506105e76111ee565b6040516105f491906150e2565b60405180910390f35b34801561060957600080fd5b50610624600480360381019061061f919061425a565b6111f3565b604051610632929190614c6d565b60405180910390f35b34801561064757600080fd5b50610662600480360381019061065d9190614097565b611217565b005b34801561067057600080fd5b506106796114d1565b60405161068691906150e2565b60405180910390f35b34801561069b57600080fd5b506106b660048036038101906106b1919061425a565b6114d6565b005b3480156106c457600080fd5b506106cd6116fc565b6040516106da91906150e2565b60405180910390f35b3480156106ef57600080fd5b506106f8611701565b60405161070591906150e2565b60405180910390f35b34801561071a57600080fd5b506107356004803603810190610730919061402b565b611706565b6040516107429190614bde565b60405180910390f35b34801561075757600080fd5b50610772600480360381019061076d9190614283565b6118b7565b005b34801561078057600080fd5b5061079b6004803603810190610796919061416f565b611aa0565b6040516107a891906150e2565b60405180910390f35b3480156107bd57600080fd5b506107c6611ab8565b6040516107d391906150e2565b60405180910390f35b3480156107e857600080fd5b5061080360048036038101906107fe919061425a565b611abe565b6040516108109190614ae5565b60405180910390f35b34801561082557600080fd5b50610840600480360381019061083b919061425a565b611afb565b60405161084d91906150e2565b60405180910390f35b34801561086257600080fd5b5061086b611b1f565b60405161087891906150e2565b60405180910390f35b34801561088d57600080fd5b506108a860048036038101906108a3919061425a565b611b24565b6040516108b59190614ae5565b60405180910390f35b3480156108ca57600080fd5b506108d3611b57565b6040516108e091906150e2565b60405180910390f35b3480156108f557600080fd5b506108fe611b5c565b60405161090b91906150e2565b60405180910390f35b34801561092057600080fd5b50610929611b61565b60405161093691906150e2565b60405180910390f35b34801561094b57600080fd5b506109666004803603810190610961919061425a565b611b66565b60405161097391906150e2565b60405180910390f35b34801561098857600080fd5b50610991611b8a565b60405161099e91906150e2565b60405180910390f35b3480156109b357600080fd5b506109bc611b8f565b6040516109c99190614ae5565b60405180910390f35b3480156109de57600080fd5b506109e7611bb5565b6040516109f491906150e2565b60405180910390f35b348015610a0957600080fd5b50610a246004803603810190610a1f919061425a565b611bba565b604051610a319190614c52565b60405180910390f35b348015610a4657600080fd5b50610a616004803603810190610a5c91906141ea565b611bd2565b005b348015610a6f57600080fd5b50610a78611e66565b604051610a8591906150e2565b60405180910390f35b348015610a9a57600080fd5b50610aa3611e6b565b604051610ab091906150e2565b60405180910390f35b348015610ac557600080fd5b50610ace611e70565b604051610adb91906150e2565b60405180910390f35b348015610af057600080fd5b50610b0b6004803603810190610b06919061425a565b611e75565b604051610b1891906150e2565b60405180910390f35b348015610b2d57600080fd5b50610b486004803603810190610b439190613fb3565b611e99565b005b348015610b5657600080fd5b50610b5f611eaf565b604051610b6c9190614bc2565b60405180910390f35b348015610b8157600080fd5b50610b9c6004803603810190610b97919061425a565b611f53565b604051610ba99190614c52565b60405180910390f35b348015610bbe57600080fd5b50610bc7611f6b565b604051610bd491906150e2565b60405180910390f35b348015610be957600080fd5b50610c046004803603810190610bff9190613e65565b611f70565b604051610c119190614d65565b60405180910390f35b348015610c2657600080fd5b50610c416004803603810190610c3c91906140d8565b611f85565b005b348015610c4f57600080fd5b50610c586122d4565b604051610c6591906150e2565b60405180910390f35b348015610c7a57600080fd5b50610c836122d9565b604051610c9091906150e2565b60405180910390f35b348015610ca557600080fd5b50610cc06004803603810190610cbb919061416f565b6122de565b604051610ccd91906150e2565b60405180910390f35b348015610ce257600080fd5b50610ceb6122f6565b604051610cf891906150e2565b60405180910390f35b348015610d0d57600080fd5b50610d166122fb565b604051610d239190614bde565b60405180910390f35b348015610d3857600080fd5b50610d41612353565b604051610d4e91906150e2565b60405180910390f35b348015610d6357600080fd5b50610d6c612358565b604051610d7991906150e2565b60405180910390f35b348015610d8e57600080fd5b50610d9761235d565b604051610da491906150e2565b60405180910390f35b348015610db957600080fd5b50610dd46004803603810190610dcf9190613e29565b612362565b604051610de19190614c37565b60405180910390f35b348015610df657600080fd5b50610e116004803603810190610e0c9190613f24565b6123f6565b604051610e1e9190614d65565b60405180910390f35b348015610e3357600080fd5b50610e4e6004803603810190610e499190613f24565b61240b565b005b348015610e5c57600080fd5b50610e656124ac565b604051610e7291906150e2565b60405180910390f35b60008073ffffffffffffffffffffffffffffffffffffffff168373ffffffffffffffffffffffffffffffffffffffff161415610eec576040517f08c379a0000000000000000000000000000000000000000000000000000000008152600401610ee390614e42565b60405180910390fd5b60008083815260200190815260200160002060008473ffffffffffffffffffffffffffffffffffffffff1673ffffffffffffffffffffffffffffffffffffffff16815260200190815260200160002054905092915050565b60007fd9b67a26000000000000000000000000000000000000000000000000000000007bffffffffffffffffffffffffffffffffffffffffffffffffffffffff1916827bffffffffffffffffffffffffffffffffffffffffffffffffffffffff1916148061100f57507f0e89341c000000000000000000000000000000000000000000000000000000007bffffffffffffffffffffffffffffffffffffffffffffffffffffffff1916827bffffffffffffffffffffffffffffffffffffffffffffffffffffffff1916145b8061101f575061101e826124c4565b5b9050919050565b60606002805461103590615590565b80601f016020809104026020016040519081016040528092919081815260200182805461106190615590565b80156110ae5780601f10611083576101008083540402835291602001916110ae565b820191906000526020600020905b81548152906001019060200180831161109157829003601f168201915b50505050509050919050565b600481565b60065481565b601681565b601581565b600681565b601481565b6110e161252e565b73ffffffffffffffffffffffffffffffffffffffff168573ffffffffffffffffffffffffffffffffffffffff16148061112757506111268561112161252e565b612362565b5b611166576040517f08c379a000000000000000000000000000000000000000000000000000000000815260040161115d90614f42565b60405180910390fd5b6111738585858585612536565b5050505050565b662386f26fc100003410156111c4576040517f08c379a00000000000000000000000000000000000000000000000000000000081526004016111bb90614fe2565b60405180910390fd5b6111e230336000606460405180602001604052806000815250612896565b565b600281565b601a81565b600081565b60106020528060005260406000206000915090508060000154908060010154905082565b601481511061125b576040517f08c379a000000000000000000000000000000000000000000000000000000000815260040161125290614ea2565b60405180910390fd5b60008160405160200161126e9190614a80565b6040516020818303038152906040528051906020012090506000600e600083815260200190815260200160002054146112dc576040517f08c379a00000000000000000000000000000000000000000000000000000000081526004016112d390614e82565b60405180910390fd5b60005b8251811015611402576000838281518110611323577f4e487b7100000000000000000000000000000000000000000000000000000000600052603260045260246000fd5b602002602001015190506000600b600083815260200190815260200160002050602060ff161415611389576040517f08c379a000000000000000000000000000000000000000000000000000000000815260040161138090614fa2565b60405180910390fd5b600061139482611abe565b90503373ffffffffffffffffffffffffffffffffffffffff168173ffffffffffffffffffffffffffffffffffffffff16146113ec576113e733826000606460405180602001604052806000815250612896565b6113ed565b5b505080806113fa906155f3565b9150506112df565b600060075490506114253382600160405180602001604052806000815250612b18565b80600e60008581526020019081526020016000208190555060098190806001815401808255809150506001900390600052602060002001600090919091909150553373ffffffffffffffffffffffffffffffffffffffff167f1742cd7cfc157cdf0fe4d844f8fa4abd70dc305c860d7450e79b27b4dfabe1ed82866040516114ae9291906150fd565b60405180910390a260026007546114c591906153d8565b60078190555050505050565b601981565b60016114e23383610e7b565b14611522576040517f08c379a000000000000000000000000000000000000000000000000000000000815260040161151990614fc2565b60405180910390fd5b600360106000838152602001908152602001600020600082015481600001556001820154816001015590505060005b600a805490508110156116aa5781600a8281548110611599577f4e487b7100000000000000000000000000000000000000000000000000000000600052603260045260246000fd5b9060005260206000200154141561169757600a6001600a805490506115be9190615465565b815481106115f5577f4e487b7100000000000000000000000000000000000000000000000000000000600052603260045260246000fd5b9060005260206000200154600a828154811061163a577f4e487b7100000000000000000000000000000000000000000000000000000000600052603260045260246000fd5b9060005260206000200181905550600a805480611680577f4e487b7100000000000000000000000000000000000000000000000000000000600052603160045260246000fd5b600190038181906000526020600020016000905590555b80806116a2906155f3565b915050611551565b3373ffffffffffffffffffffffffffffffffffffffff167f5a8a378d76a41e5e17755db6e811fe478516dbfbb1d5fd2f45a0f1f98ce067b0836040516116f091906150e2565b60405180910390a25050565b601281565b601381565b6060815183511461174c576040517f08c379a000000000000000000000000000000000000000000000000000000000815260040161174390615042565b60405180910390fd5b6000835167ffffffffffffffff81111561178f577f4e487b7100000000000000000000000000000000000000000000000000000000600052604160045260246000fd5b6040519080825280602002602001820160405280156117bd5781602001602082028036833780820191505090505b50905060005b84518110156118ac57611856858281518110611808577f4e487b7100000000000000000000000000000000000000000000000000000000600052603260045260246000fd5b6020026020010151858381518110611849577f4e487b7100000000000000000000000000000000000000000000000000000000600052603260045260246000fd5b6020026020010151610e7b565b82828151811061188f577f4e487b7100000000000000000000000000000000000000000000000000000000600052603260045260246000fd5b602002602001018181525050806118a5906155f3565b90506117c3565b508091505092915050565b6000801b601060008581526020019081526020016000206000015414611912576040517f08c379a0000000000000000000000000000000000000000000000000000000008152600401611909906150c2565b60405180910390fd5b600161191e3385610e7b565b1461195e576040517f08c379a000000000000000000000000000000000000000000000000000000000815260040161195590614fc2565b60405180910390fd5b6000801b601060008581526020019081526020016000206000015414801561199e57506000801b6010600085815260200190815260200160002060010154145b6119dd576040517f08c379a00000000000000000000000000000000000000000000000000000000081526004016119d490614e22565b60405180910390fd5b6000604051806040016040528084815260200183815250905080601060008681526020019081526020016000206000820151816000015560208201518160010155905050600a8490806001815401808255809150506001900390600052602060002001600090919091909150553373ffffffffffffffffffffffffffffffffffffffff167f3a1b544cd7519c5a4bc1b60cf358ec43973c5ea1695cc88a9419ef7d50c260be8583604051611a9292919061515d565b60405180910390a250505050565b600e6020528060005260406000206000915090505481565b60075481565b6000600f600083815260200190815260200160002060009054906101000a900473ffffffffffffffffffffffffffffffffffffffff169050919050565b600a8181548110611b0b57600080fd5b906000526020600020016000915090505481565b600d81565b600f6020528060005260406000206000915054906101000a900473ffffffffffffffffffffffffffffffffffffffff1681565b600781565b600881565b600381565b60088181548110611b7657600080fd5b906000526020600020016000915090505481565b601081565b601160009054906101000a900473ffffffffffffffffffffffffffffffffffffffff1681565b600581565b600c6020528060005260406000206000915090505481565b611c28611bde84612cae565b83838080601f016020809104026020016040519081016040528093929190818152602001838380828437600081840152601f19601f82011690508083019250505050505050612d7b565b611c67576040517f08c379a0000000000000000000000000000000000000000000000000000000008152600401611c5e90614ec2565b60405180910390fd5b611c8533306000606460405180602001604052806000815250612896565b60005b838060000190611c9891906151af565b90508160ff161015611da6576000848060000190611cb691906151af565b8360ff16818110611cf0577f4e487b7100000000000000000000000000000000000000000000000000000000600052603260045260246000fd5b90506020020135118015611d545750601b848060000190611d1191906151af565b8360ff16818110611d4b577f4e487b7100000000000000000000000000000000000000000000000000000000600052603260045260246000fd5b90506020020135105b611d93576040517f08c379a0000000000000000000000000000000000000000000000000000000008152600401611d8a906150a2565b60405180910390fd5b8080611d9e9061563c565b915050611c88565b611e603033868060000190611dbb91906151af565b80806020026020016040519081016040528093929190818152602001838360200280828437600081840152601f19601f82011690508083019250505050505050878060200190611e0b91906151af565b80806020026020016040519081016040528093929190818152602001838360200280828437600081840152601f19601f8201169050808301925050505050505060405180602001604052806000815250612536565b50505050565b600c81565b601b81565b600f81565b60098181548110611e8557600080fd5b906000526020600020016000915090505481565b611eab611ea461252e565b8383612de4565b5050565b611eb7613ae4565b611ebf613ae4565b60005b6001601b611ed09190615465565b8160ff161015611f4b57611ef333600183611eeb919061542e565b60ff16610e7b565b828260ff16601a8110611f2f577f4e487b7100000000000000000000000000000000000000000000000000000000600052603260045260246000fd5b6020020181815250508080611f439061563c565b915050611ec2565b819250505090565b600b6020528060005260406000206000915090505481565b600b81565b600063bc197c8160e01b905095945050505050565b600081604051602001611f989190614a97565b6040516020818303038152906040528051906020012090506000600d60008381526020019081526020016000205414612006576040517f08c379a0000000000000000000000000000000000000000000000000000000008152600401611ffd90614f02565b60405180910390fd5b60005b84518160ff16101561217d576000858260ff1681518110612053577f4e487b7100000000000000000000000000000000000000000000000000000000600052603260045260246000fd5b602002602001015190506000858360ff168151811061209b577f4e487b7100000000000000000000000000000000000000000000000000000000600052603260045260246000fd5b6020026020010151905060005b85518160ff16101561212457858160ff16815181106120f0577f4e487b7100000000000000000000000000000000000000000000000000000000600052603260045260246000fd5b602002602001015160ff1683141561211157818061210d90615566565b9250505b808061211c9061563c565b9150506120a8565b60008214612167576040517f08c379a000000000000000000000000000000000000000000000000000000000815260040161215e90615002565b60405180910390fd5b50505080806121759061563c565b915050612009565b6121993330878760405180602001604052806000815250612536565b600060065490506121bc3382600160405180602001604052806000815250612b18565b80600d60008581526020019081526020016000208190555082600b600083815260200190815260200160002081905550600881908060018154018082558091505060019003906000526020600020016000909190919091505533600f600083815260200190815260200160002060006101000a81548173ffffffffffffffffffffffffffffffffffffffff021916908373ffffffffffffffffffffffffffffffffffffffff1602179055503373ffffffffffffffffffffffffffffffffffffffff167fc7922dd4940c92fe97436564fc803203babb751a244518678d439519d8a8150982866040516122af92919061512d565b60405180910390a260026006546122c691906153d8565b600681905550505050505050565b601881565b600e81565b600d6020528060005260406000206000915090505481565b600a81565b6060600a80548060200260200160405190810160405280929190818152602001828054801561234957602002820191906000526020600020905b815481526020019060010190808311612335575b5050505050905090565b600981565b601781565b601181565b6000600160008473ffffffffffffffffffffffffffffffffffffffff1673ffffffffffffffffffffffffffffffffffffffff16815260200190815260200160002060008373ffffffffffffffffffffffffffffffffffffffff1673ffffffffffffffffffffffffffffffffffffffff16815260200190815260200160002060009054906101000a900460ff16905092915050565b600063f23a6e6160e01b905095945050505050565b61241361252e565b73ffffffffffffffffffffffffffffffffffffffff168573ffffffffffffffffffffffffffffffffffffffff16148061245957506124588561245361252e565b612362565b5b612498576040517f08c379a000000000000000000000000000000000000000000000000000000000815260040161248f90614e62565b60405180910390fd5b6124a58585858585612896565b5050505050565b600181565b600080823b905060008111915050919050565b60007f01ffc9a7000000000000000000000000000000000000000000000000000000007bffffffffffffffffffffffffffffffffffffffffffffffffffffffff1916827bffffffffffffffffffffffffffffffffffffffffffffffffffffffff1916149050919050565b600033905090565b815183511461257a576040517f08c379a000000000000000000000000000000000000000000000000000000000815260040161257190615062565b60405180910390fd5b600073ffffffffffffffffffffffffffffffffffffffff168473ffffffffffffffffffffffffffffffffffffffff1614156125ea576040517f08c379a00000000000000000000000000000000000000000000000000000000081526004016125e190614f22565b60405180910390fd5b60006125f461252e565b9050612604818787878787612f51565b60005b845181101561280157600085828151811061264b577f4e487b7100000000000000000000000000000000000000000000000000000000600052603260045260246000fd5b602002602001015190506000858381518110612690577f4e487b7100000000000000000000000000000000000000000000000000000000600052603260045260246000fd5b60200260200101519050600080600084815260200190815260200160002060008b73ffffffffffffffffffffffffffffffffffffffff1673ffffffffffffffffffffffffffffffffffffffff16815260200190815260200160002054905081811015612731576040517f08c379a000000000000000000000000000000000000000000000000000000000815260040161272890614f82565b60405180910390fd5b81810360008085815260200190815260200160002060008c73ffffffffffffffffffffffffffffffffffffffff1673ffffffffffffffffffffffffffffffffffffffff168152602001908152602001600020819055508160008085815260200190815260200160002060008b73ffffffffffffffffffffffffffffffffffffffff1673ffffffffffffffffffffffffffffffffffffffff16815260200190815260200160002060008282546127e691906153d8565b92505081905550505050806127fa906155f3565b9050612607565b508473ffffffffffffffffffffffffffffffffffffffff168673ffffffffffffffffffffffffffffffffffffffff168273ffffffffffffffffffffffffffffffffffffffff167f4a39dc06d4c0dbc64b70af90fd698a233a518aa5d07e595d983b8c0526c8f7fb8787604051612878929190614c00565b60405180910390a461288e818787878787612f59565b505050505050565b600073ffffffffffffffffffffffffffffffffffffffff168473ffffffffffffffffffffffffffffffffffffffff161415612906576040517f08c379a00000000000000000000000000000000000000000000000000000000081526004016128fd90614f22565b60405180910390fd5b600061291061252e565b905061293081878761292188613140565b61292a88613140565b87612f51565b600080600086815260200190815260200160002060008873ffffffffffffffffffffffffffffffffffffffff1673ffffffffffffffffffffffffffffffffffffffff168152602001908152602001600020549050838110156129c7576040517f08c379a00000000000000000000000000000000000000000000000000000000081526004016129be90614f82565b60405180910390fd5b83810360008087815260200190815260200160002060008973ffffffffffffffffffffffffffffffffffffffff1673ffffffffffffffffffffffffffffffffffffffff168152602001908152602001600020819055508360008087815260200190815260200160002060008873ffffffffffffffffffffffffffffffffffffffff1673ffffffffffffffffffffffffffffffffffffffff1681526020019081526020016000206000828254612a7c91906153d8565b925050819055508573ffffffffffffffffffffffffffffffffffffffff168773ffffffffffffffffffffffffffffffffffffffff168373ffffffffffffffffffffffffffffffffffffffff167fc3d58168c5ae7397731d063d5bbf3d657854427343f4c083240f7aacaa2d0f628888604051612af9929190615186565b60405180910390a4612b0f828888888888613206565b50505050505050565b600073ffffffffffffffffffffffffffffffffffffffff168473ffffffffffffffffffffffffffffffffffffffff161415612b88576040517f08c379a0000000000000000000000000000000000000000000000000000000008152600401612b7f90615082565b60405180910390fd5b6000612b9261252e565b9050612bb381600087612ba488613140565b612bad88613140565b87612f51565b8260008086815260200190815260200160002060008773ffffffffffffffffffffffffffffffffffffffff1673ffffffffffffffffffffffffffffffffffffffff1681526020019081526020016000206000828254612c1291906153d8565b925050819055508473ffffffffffffffffffffffffffffffffffffffff16600073ffffffffffffffffffffffffffffffffffffffff168273ffffffffffffffffffffffffffffffffffffffff167fc3d58168c5ae7397731d063d5bbf3d657854427343f4c083240f7aacaa2d0f628787604051612c90929190615186565b60405180910390a4612ca781600087878787613206565b5050505050565b600080612d707fa69dae8a75df131ffc741a131eb333968418525915f41f8819244628ecad723f848060000190612ce591906151af565b604051602001612cf6929190614a67565b60405160208183030381529060405280519060200120858060200190612d1c91906151af565b604051602001612d2d929190614a67565b60405160208183030381529060405280519060200120604051602001612d5593929190614c96565b604051602081830303815290604052805190602001206133ed565b905080915050919050565b600080612d888484613407565b90508073ffffffffffffffffffffffffffffffffffffffff16601160009054906101000a900473ffffffffffffffffffffffffffffffffffffffff1673ffffffffffffffffffffffffffffffffffffffff161491505092915050565b8173ffffffffffffffffffffffffffffffffffffffff168373ffffffffffffffffffffffffffffffffffffffff161415612e53576040517f08c379a0000000000000000000000000000000000000000000000000000000008152600401612e4a90615022565b60405180910390fd5b80600160008573ffffffffffffffffffffffffffffffffffffffff1673ffffffffffffffffffffffffffffffffffffffff16815260200190815260200160002060008473ffffffffffffffffffffffffffffffffffffffff1673ffffffffffffffffffffffffffffffffffffffff16815260200190815260200160002060006101000a81548160ff0219169083151502179055508173ffffffffffffffffffffffffffffffffffffffff168373ffffffffffffffffffffffffffffffffffffffff167f17307eab39ab6107e8899845ad3d59bd9653f200f220920489ca2b5937696c3183604051612f449190614c37565b60405180910390a3505050565b505050505050565b612f788473ffffffffffffffffffffffffffffffffffffffff166124b1565b15613138578373ffffffffffffffffffffffffffffffffffffffff1663bc197c8187878686866040518663ffffffff1660e01b8152600401612fbe959493929190614b00565b602060405180830381600087803b158015612fd857600080fd5b505af192505050801561300957506040513d601f19601f8201168201806040525081019061300691906141c1565b60015b6130af576130156156fd565b806308c379a01415613072575061302a615da4565b806130355750613074565b806040517f08c379a00000000000000000000000000000000000000000000000000000000081526004016130699190614d80565b60405180910390fd5b505b6040517f08c379a00000000000000000000000000000000000000000000000000000000081526004016130a690614dc2565b60405180910390fd5b63bc197c8160e01b7bffffffffffffffffffffffffffffffffffffffffffffffffffffffff1916817bffffffffffffffffffffffffffffffffffffffffffffffffffffffff191614613136576040517f08c379a000000000000000000000000000000000000000000000000000000000815260040161312d90614de2565b60405180910390fd5b505b505050505050565b60606000600167ffffffffffffffff811115613185577f4e487b7100000000000000000000000000000000000000000000000000000000600052604160045260246000fd5b6040519080825280602002602001820160405280156131b35781602001602082028036833780820191505090505b50905082816000815181106131f1577f4e487b7100000000000000000000000000000000000000000000000000000000600052603260045260246000fd5b60200260200101818152505080915050919050565b6132258473ffffffffffffffffffffffffffffffffffffffff166124b1565b156133e5578373ffffffffffffffffffffffffffffffffffffffff1663f23a6e6187878686866040518663ffffffff1660e01b815260040161326b959493929190614b68565b602060405180830381600087803b15801561328557600080fd5b505af19250505080156132b657506040513d601f19601f820116820180604052508101906132b391906141c1565b60015b61335c576132c26156fd565b806308c379a0141561331f57506132d7615da4565b806132e25750613321565b806040517f08c379a00000000000000000000000000000000000000000000000000000000081526004016133169190614d80565b60405180910390fd5b505b6040517f08c379a000000000000000000000000000000000000000000000000000000000815260040161335390614dc2565b60405180910390fd5b63f23a6e6160e01b7bffffffffffffffffffffffffffffffffffffffffffffffffffffffff1916817bffffffffffffffffffffffffffffffffffffffffffffffffffffffff1916146133e3576040517f08c379a00000000000000000000000000000000000000000000000000000000081526004016133da90614de2565b60405180910390fd5b505b505050505050565b60006134006133fa61342e565b83613548565b9050919050565b6000806000613416858561357b565b91509150613423816135fe565b819250505092915050565b60007f000000000000000000000000000000000000000000000000000000000000000073ffffffffffffffffffffffffffffffffffffffff163073ffffffffffffffffffffffffffffffffffffffff161480156134aa57507f000000000000000000000000000000000000000000000000000000000000000046145b156134d7577f00000000000000000000000000000000000000000000000000000000000000009050613545565b6135427f00000000000000000000000000000000000000000000000000000000000000007f00000000000000000000000000000000000000000000000000000000000000007f000000000000000000000000000000000000000000000000000000000000000061394f565b90505b90565b6000828260405160200161355d929190614aae565b60405160208183030381529060405280519060200120905092915050565b6000806041835114156135bd5760008060006020860151925060408601519150606086015160001a90506135b187828585613989565b945094505050506135f7565b6040835114156135ee5760008060208501519150604085015190506135e3868383613a96565b9350935050506135f7565b60006002915091505b9250929050565b60006004811115613638577f4e487b7100000000000000000000000000000000000000000000000000000000600052602160045260246000fd5b816004811115613671577f4e487b7100000000000000000000000000000000000000000000000000000000600052602160045260246000fd5b141561367c5761394c565b600160048111156136b6577f4e487b7100000000000000000000000000000000000000000000000000000000600052602160045260246000fd5b8160048111156136ef577f4e487b7100000000000000000000000000000000000000000000000000000000600052602160045260246000fd5b1415613730576040517f08c379a000000000000000000000000000000000000000000000000000000000815260040161372790614da2565b60405180910390fd5b6002600481111561376a577f4e487b7100000000000000000000000000000000000000000000000000000000600052602160045260246000fd5b8160048111156137a3577f4e487b7100000000000000000000000000000000000000000000000000000000600052602160045260246000fd5b14156137e4576040517f08c379a00000000000000000000000000000000000000000000000000000000081526004016137db90614e02565b60405180910390fd5b6003600481111561381e577f4e487b7100000000000000000000000000000000000000000000000000000000600052602160045260246000fd5b816004811115613857577f4e487b7100000000000000000000000000000000000000000000000000000000600052602160045260246000fd5b1415613898576040517f08c379a000000000000000000000000000000000000000000000000000000000815260040161388f90614ee2565b60405180910390fd5b6004808111156138d1577f4e487b7100000000000000000000000000000000000000000000000000000000600052602160045260246000fd5b81600481111561390a577f4e487b7100000000000000000000000000000000000000000000000000000000600052602160045260246000fd5b141561394b576040517f08c379a000000000000000000000000000000000000000000000000000000000815260040161394290614f62565b60405180910390fd5b5b50565b6000838383463060405160200161396a959493929190614ccd565b6040516020818303038152906040528051906020012090509392505050565b6000807f7fffffffffffffffffffffffffffffff5d576e7357a4501ddfe92f46681b20a08360001c11156139c4576000600391509150613a8d565b601b8560ff16141580156139dc5750601c8560ff1614155b156139ee576000600491509150613a8d565b600060018787878760405160008152602001604052604051613a139493929190614d20565b6020604051602081039080840390855afa158015613a35573d6000803e3d6000fd5b505050602060405103519050600073ffffffffffffffffffffffffffffffffffffffff168173ffffffffffffffffffffffffffffffffffffffff161415613a8457600060019250925050613a8d565b80600092509250505b94509492505050565b6000806000807f7fffffffffffffffffffffffffffffffffffffffffffffffffffffffffffffff85169150601b8560ff1c019050613ad687828885613989565b935093505050935093915050565b604051806103400160405280601a90602082028036833780820191505090505090565b6000613b1a613b158461522b565b615206565b90508083825260208201905082856020860282011115613b3957600080fd5b60005b85811015613b695781613b4f8882613c89565b845260208401935060208301925050600181019050613b3c565b5050509392505050565b6000613b86613b8184615257565b615206565b90508083825260208201905082856020860282011115613ba557600080fd5b60005b85811015613bd55781613bbb8882613dff565b845260208401935060208301925050600181019050613ba8565b5050509392505050565b6000613bf2613bed84615283565b615206565b90508083825260208201905082856020860282011115613c1157600080fd5b60005b85811015613c415781613c278882613e14565b845260208401935060208301925050600181019050613c14565b5050509392505050565b6000613c5e613c59846152af565b615206565b905082815260208101848484011115613c7657600080fd5b613c81848285615524565b509392505050565b600081359050613c9881615e3a565b92915050565b600082601f830112613caf57600080fd5b8135613cbf848260208601613b07565b91505092915050565b600082601f830112613cd957600080fd5b8135613ce9848260208601613b73565b91505092915050565b600082601f830112613d0357600080fd5b8135613d13848260208601613bdf565b91505092915050565b600081359050613d2b81615e51565b92915050565b600081359050613d4081615e68565b92915050565b600081359050613d5581615e7f565b92915050565b600081519050613d6a81615e7f565b92915050565b60008083601f840112613d8257600080fd5b8235905067ffffffffffffffff811115613d9b57600080fd5b602083019150836001820283011115613db357600080fd5b9250929050565b600082601f830112613dcb57600080fd5b8135613ddb848260208601613c4b565b91505092915050565b600060408284031215613df657600080fd5b81905092915050565b600081359050613e0e81615e96565b92915050565b600081359050613e2381615ead565b92915050565b60008060408385031215613e3c57600080fd5b6000613e4a85828601613c89565b9250506020613e5b85828601613c89565b9150509250929050565b600080600080600060a08688031215613e7d57600080fd5b6000613e8b88828901613c89565b9550506020613e9c88828901613c89565b945050604086013567ffffffffffffffff811115613eb957600080fd5b613ec588828901613cc8565b935050606086013567ffffffffffffffff811115613ee257600080fd5b613eee88828901613cc8565b925050608086013567ffffffffffffffff811115613f0b57600080fd5b613f1788828901613dba565b9150509295509295909350565b600080600080600060a08688031215613f3c57600080fd5b6000613f4a88828901613c89565b9550506020613f5b88828901613c89565b9450506040613f6c88828901613dff565b9350506060613f7d88828901613dff565b925050608086013567ffffffffffffffff811115613f9a57600080fd5b613fa688828901613dba565b9150509295509295909350565b60008060408385031215613fc657600080fd5b6000613fd485828601613c89565b9250506020613fe585828601613d1c565b9150509250929050565b6000806040838503121561400257600080fd5b600061401085828601613c89565b925050602061402185828601613dff565b9150509250929050565b6000806040838503121561403e57600080fd5b600083013567ffffffffffffffff81111561405857600080fd5b61406485828601613c9e565b925050602083013567ffffffffffffffff81111561408157600080fd5b61408d85828601613cc8565b9150509250929050565b6000602082840312156140a957600080fd5b600082013567ffffffffffffffff8111156140c357600080fd5b6140cf84828501613cc8565b91505092915050565b6000806000606084860312156140ed57600080fd5b600084013567ffffffffffffffff81111561410757600080fd5b61411386828701613cc8565b935050602084013567ffffffffffffffff81111561413057600080fd5b61413c86828701613cc8565b925050604084013567ffffffffffffffff81111561415957600080fd5b61416586828701613cf2565b9150509250925092565b60006020828403121561418157600080fd5b600061418f84828501613d31565b91505092915050565b6000602082840312156141aa57600080fd5b60006141b884828501613d46565b91505092915050565b6000602082840312156141d357600080fd5b60006141e184828501613d5b565b91505092915050565b6000806000604084860312156141ff57600080fd5b600084013567ffffffffffffffff81111561421957600080fd5b61422586828701613de4565b935050602084013567ffffffffffffffff81111561424257600080fd5b61424e86828701613d70565b92509250509250925092565b60006020828403121561426c57600080fd5b600061427a84828501613dff565b91505092915050565b60008060006060848603121561429857600080fd5b60006142a686828701613dff565b93505060206142b786828701613d31565b92505060406142c886828701613d31565b9150509250925092565b60006142de8383614a0d565b60208301905092915050565b60006142f68383614a2b565b60208301905092915050565b600061430e8383614a3a565b60208301905092915050565b60006143268383614a58565b60208301905092915050565b61433b81615499565b82525050565b61434a8161530a565b6143548184615368565b925061435f826152e0565b8060005b8381101561439057815161437787826142d2565b965061438283615341565b925050600181019050614363565b505050505050565b60006143a48385615384565b93507f07ffffffffffffffffffffffffffffffffffffffffffffffffffffffffffffff8311156143d357600080fd5b6020830292506143e4838584615524565b82840190509392505050565b60006143fb82615315565b6144058185615373565b9350614410836152ea565b8060005b8381101561444157815161442888826142d2565b97506144338361534e565b925050600181019050614414565b5085935050505092915050565b600061445982615315565b6144638185615384565b935061446e836152ea565b8060005b8381101561449f57815161448688826142ea565b97506144918361534e565b925050600181019050614472565b5085935050505092915050565b60006144b782615320565b6144c1818561538f565b93506144cc836152fa565b8060005b838110156144fd5781516144e48882614302565b97506144ef8361535b565b9250506001810190506144d0565b5085935050505092915050565b600061451582615320565b61451f81856153a0565b935061452a836152fa565b8060005b8381101561455b578151614542888261431a565b975061454d8361535b565b92505060018101905061452e565b5085935050505092915050565b614571816154ab565b82525050565b614580816154b7565b82525050565b61458f816154b7565b82525050565b6145a66145a1826154b7565b615666565b82525050565b6145b5816154c1565b82525050565b60006145c68261532b565b6145d081856153ab565b93506145e0818560208601615533565b6145e98161571f565b840191505092915050565b60006145ff82615336565b61460981856153bc565b9350614619818560208601615533565b6146228161571f565b840191505092915050565b600061463a6018836153bc565b91506146458261573d565b602082019050919050565b600061465d6034836153bc565b915061466882615766565b604082019050919050565b60006146806028836153bc565b915061468b826157b5565b604082019050919050565b60006146a3601f836153bc565b91506146ae82615804565b602082019050919050565b60006146c6600f836153bc565b91506146d18261582d565b602082019050919050565b60006146e9602b836153bc565b91506146f482615856565b604082019050919050565b600061470c6002836153cd565b9150614717826158a5565b600282019050919050565b600061472f6029836153bc565b915061473a826158ce565b604082019050919050565b6000614752600e836153bc565b915061475d8261591d565b602082019050919050565b6000614775600e836153bc565b915061478082615946565b602082019050919050565b60006147986011836153bc565b91506147a38261596f565b602082019050919050565b60006147bb6022836153bc565b91506147c682615998565b604082019050919050565b60006147de600b836153bc565b91506147e9826159e7565b602082019050919050565b60006148016025836153bc565b915061480c82615a10565b604082019050919050565b60006148246032836153bc565b915061482f82615a5f565b604082019050919050565b60006148476022836153bc565b915061485282615aae565b604082019050919050565b600061486a602a836153bc565b915061487582615afd565b604082019050919050565b600061488d6018836153bc565b915061489882615b4c565b602082019050919050565b60006148b06009836153bc565b91506148bb82615b75565b602082019050919050565b60006148d36011836153bc565b91506148de82615b9e565b602082019050919050565b60006148f6601d836153bc565b915061490182615bc7565b602082019050919050565b60006149196029836153bc565b915061492482615bf0565b604082019050919050565b600061493c6029836153bc565b915061494782615c3f565b604082019050919050565b600061495f6028836153bc565b915061496a82615c8e565b604082019050919050565b60006149826021836153bc565b915061498d82615cdd565b604082019050919050565b60006149a56014836153bc565b91506149b082615d2c565b602082019050919050565b60006149c86022836153bc565b91506149d382615d55565b604082019050919050565b6040820160008201516149f46000850182614577565b506020820151614a076020850182614577565b50505050565b614a168161550d565b82525050565b614a258161550d565b82525050565b614a348161550d565b82525050565b614a4381615517565b82525050565b614a5281615517565b82525050565b614a6181615517565b82525050565b6000614a74828486614398565b91508190509392505050565b6000614a8c828461444e565b915081905092915050565b6000614aa3828461450a565b915081905092915050565b6000614ab9826146ff565b9150614ac58285614595565b602082019150614ad58284614595565b6020820191508190509392505050565b6000602082019050614afa6000830184614332565b92915050565b600060a082019050614b156000830188614332565b614b226020830187614332565b8181036040830152614b3481866143f0565b90508181036060830152614b4881856143f0565b90508181036080830152614b5c81846145bb565b90509695505050505050565b600060a082019050614b7d6000830188614332565b614b8a6020830187614332565b614b976040830186614a1c565b614ba46060830185614a1c565b8181036080830152614bb681846145bb565b90509695505050505050565b600061034082019050614bd86000830184614341565b92915050565b60006020820190508181036000830152614bf881846143f0565b905092915050565b60006040820190508181036000830152614c1a81856143f0565b90508181036020830152614c2e81846143f0565b90509392505050565b6000602082019050614c4c6000830184614568565b92915050565b6000602082019050614c676000830184614586565b92915050565b6000604082019050614c826000830185614586565b614c8f6020830184614586565b9392505050565b6000606082019050614cab6000830186614586565b614cb86020830185614586565b614cc56040830184614586565b949350505050565b600060a082019050614ce26000830188614586565b614cef6020830187614586565b614cfc6040830186614586565b614d096060830185614a1c565b614d166080830184614332565b9695505050505050565b6000608082019050614d356000830187614586565b614d426020830186614a49565b614d4f6040830185614586565b614d5c6060830184614586565b95945050505050565b6000602082019050614d7a60008301846145ac565b92915050565b60006020820190508181036000830152614d9a81846145f4565b905092915050565b60006020820190508181036000830152614dbb8161462d565b9050919050565b60006020820190508181036000830152614ddb81614650565b9050919050565b60006020820190508181036000830152614dfb81614673565b9050919050565b60006020820190508181036000830152614e1b81614696565b9050919050565b60006020820190508181036000830152614e3b816146b9565b9050919050565b60006020820190508181036000830152614e5b816146dc565b9050919050565b60006020820190508181036000830152614e7b81614722565b9050919050565b60006020820190508181036000830152614e9b81614745565b9050919050565b60006020820190508181036000830152614ebb81614768565b9050919050565b60006020820190508181036000830152614edb8161478b565b9050919050565b60006020820190508181036000830152614efb816147ae565b9050919050565b60006020820190508181036000830152614f1b816147d1565b9050919050565b60006020820190508181036000830152614f3b816147f4565b9050919050565b60006020820190508181036000830152614f5b81614817565b9050919050565b60006020820190508181036000830152614f7b8161483a565b9050919050565b60006020820190508181036000830152614f9b8161485d565b9050919050565b60006020820190508181036000830152614fbb81614880565b9050919050565b60006020820190508181036000830152614fdb816148a3565b9050919050565b60006020820190508181036000830152614ffb816148c6565b9050919050565b6000602082019050818103600083015261501b816148e9565b9050919050565b6000602082019050818103600083015261503b8161490c565b9050919050565b6000602082019050818103600083015261505b8161492f565b9050919050565b6000602082019050818103600083015261507b81614952565b9050919050565b6000602082019050818103600083015261509b81614975565b9050919050565b600060208201905081810360008301526150bb81614998565b9050919050565b600060208201905081810360008301526150db816149bb565b9050919050565b60006020820190506150f76000830184614a1c565b92915050565b60006040820190506151126000830185614a1c565b818103602083015261512481846143f0565b90509392505050565b60006040820190506151426000830185614a1c565b818103602083015261515481846144ac565b90509392505050565b60006060820190506151726000830185614a1c565b61517f60208301846149de565b9392505050565b600060408201905061519b6000830185614a1c565b6151a86020830184614a1c565b9392505050565b600080833560016020038436030381126151c857600080fd5b80840192508235915067ffffffffffffffff8211156151e657600080fd5b6020830192506020820236038313156151fe57600080fd5b509250929050565b6000615210615221565b905061521c82826155c2565b919050565b6000604051905090565b600067ffffffffffffffff821115615246576152456156ce565b5b602082029050602081019050919050565b600067ffffffffffffffff821115615272576152716156ce565b5b602082029050602081019050919050565b600067ffffffffffffffff82111561529e5761529d6156ce565b5b602082029050602081019050919050565b600067ffffffffffffffff8211156152ca576152c96156ce565b5b6152d38261571f565b9050602081019050919050565b6000819050919050565b6000819050602082019050919050565b6000819050602082019050919050565b6000601a9050919050565b600081519050919050565b600081519050919050565b600081519050919050565b600081519050919050565b6000602082019050919050565b6000602082019050919050565b6000602082019050919050565b600081905092915050565b600082825260208201905092915050565b600081905092915050565b600082825260208201905092915050565b600081905092915050565b600082825260208201905092915050565b600082825260208201905092915050565b600081905092915050565b60006153e38261550d565b91506153ee8361550d565b9250827fffffffffffffffffffffffffffffffffffffffffffffffffffffffffffffffff0382111561542357615422615670565b5b828201905092915050565b600061543982615517565b915061544483615517565b92508260ff0382111561545a57615459615670565b5b828201905092915050565b60006154708261550d565b915061547b8361550d565b92508282101561548e5761548d615670565b5b828203905092915050565b60006154a4826154ed565b9050919050565b60008115159050919050565b6000819050919050565b60007fffffffff0000000000000000000000000000000000000000000000000000000082169050919050565b600073ffffffffffffffffffffffffffffffffffffffff82169050919050565b6000819050919050565b600060ff82169050919050565b82818337600083830152505050565b60005b83811015615551578082015181840152602081019050615536565b83811115615560576000848401525b50505050565b60006155718261550d565b9150600082141561558557615584615670565b5b600182039050919050565b600060028204905060018216806155a857607f821691505b602082108114156155bc576155bb61569f565b5b50919050565b6155cb8261571f565b810181811067ffffffffffffffff821117156155ea576155e96156ce565b5b80604052505050565b60006155fe8261550d565b91507fffffffffffffffffffffffffffffffffffffffffffffffffffffffffffffffff82141561563157615630615670565b5b600182019050919050565b600061564782615517565b915060ff82141561565b5761565a615670565b5b600182019050919050565b6000819050919050565b7f4e487b7100000000000000000000000000000000000000000000000000000000600052601160045260246000fd5b7f4e487b7100000000000000000000000000000000000000000000000000000000600052602260045260246000fd5b7f4e487b7100000000000000000000000000000000000000000000000000000000600052604160045260246000fd5b600060033d111561571c5760046000803e615719600051615730565b90505b90565b6000601f19601f8301169050919050565b60008160e01c9050919050565b7f45434453413a20696e76616c6964207369676e61747572650000000000000000600082015250565b7f455243313135353a207472616e7366657220746f206e6f6e204552433131353560008201527f526563656976657220696d706c656d656e746572000000000000000000000000602082015250565b7f455243313135353a204552433131353552656365697665722072656a6563746560008201527f6420746f6b656e73000000000000000000000000000000000000000000000000602082015250565b7f45434453413a20696e76616c6964207369676e6174757265206c656e67746800600082015250565b7f4d6f74746f20697320706c616365640000000000000000000000000000000000600082015250565b7f455243313135353a2062616c616e636520717565727920666f7220746865207a60008201527f65726f2061646472657373000000000000000000000000000000000000000000602082015250565b7f1901000000000000000000000000000000000000000000000000000000000000600082015250565b7f455243313135353a2063616c6c6572206973206e6f74206f776e6572206e6f7260008201527f20617070726f7665640000000000000000000000000000000000000000000000602082015250565b7f4d6f74746f2069732074616b656e000000000000000000000000000000000000600082015250565b7f4d6f74746f20746f6f206c6f6e67000000000000000000000000000000000000600082015250565b7f496e76616c6964207369676e6174757265000000000000000000000000000000600082015250565b7f45434453413a20696e76616c6964207369676e6174757265202773272076616c60008201527f7565000000000000000000000000000000000000000000000000000000000000602082015250565b7f576f726420657869737473000000000000000000000000000000000000000000600082015250565b7f455243313135353a207472616e7366657220746f20746865207a65726f20616460008201527f6472657373000000000000000000000000000000000000000000000000000000602082015250565b7f455243313135353a207472616e736665722063616c6c6572206973206e6f742060008201527f6f776e6572206e6f7220617070726f7665640000000000000000000000000000602082015250565b7f45434453413a20696e76616c6964207369676e6174757265202776272076616c60008201527f7565000000000000000000000000000000000000000000000000000000000000602082015250565b7f455243313135353a20696e73756666696369656e742062616c616e636520666f60008201527f72207472616e7366657200000000000000000000000000000000000000000000602082015250565b7f5468697320776f726420646f6573206e6f742065786973740000000000000000600082015250565b7f4e6f74206f776e65720000000000000000000000000000000000000000000000600082015250565b7f6d757374206265202e3031206d61746963000000000000000000000000000000600082015250565b7f4c65747465727320616e6420776f726420646f206e6f74206d61746368000000600082015250565b7f455243313135353a2073657474696e6720617070726f76616c2073746174757360008201527f20666f722073656c660000000000000000000000000000000000000000000000602082015250565b7f455243313135353a206163636f756e747320616e6420696473206c656e67746860008201527f206d69736d617463680000000000000000000000000000000000000000000000602082015250565b7f455243313135353a2069647320616e6420616d6f756e7473206c656e6774682060008201527f6d69736d61746368000000000000000000000000000000000000000000000000602082015250565b7f455243313135353a206d696e7420746f20746865207a65726f2061646472657360008201527f7300000000000000000000000000000000000000000000000000000000000000602082015250565b7f54686973206973206e6f742061206c6574746572000000000000000000000000600082015250565b7f54686973206d6f74746f2068617320616c7265616479206265656e20706c616360008201527f6564000000000000000000000000000000000000000000000000000000000000602082015250565b600060443d1015615db457615e37565b615dbc615221565b60043d036004823e80513d602482011167ffffffffffffffff82111715615de4575050615e37565b808201805167ffffffffffffffff811115615e025750505050615e37565b80602083010160043d038501811115615e1f575050505050615e37565b615e2e826020018501866155c2565b82955050505050505b90565b615e4381615499565b8114615e4e57600080fd5b50565b615e5a816154ab565b8114615e6557600080fd5b50565b615e71816154b7565b8114615e7c57600080fd5b50565b615e88816154c1565b8114615e9357600080fd5b50565b615e9f8161550d565b8114615eaa57600080fd5b50565b615eb681615517565b8114615ec157600080fd5b5056fea264697066735822122010560ee2e5b7da4f124beb81b7d9af1337b1661bdda7afc1ebde41a53792072f64736f6c6343000804003368747470733a2f2f63646e2e6d74747672732e636f6d2f6d657461646174612f7b69647d2e6a736f6e",
  "linkReferences": {},
  "deployedLinkReferences": {}
}